:020000040000FA
:060000000FEF04F01200F6
:020006001200E6
:060008000EEF00F01200F3
:02000E000100EF
:0C001000500800006A000000040000001E
:04001C00DACFE4FF54
:10002000E2CFDAFFE9CFE4FFEACFE4FFF6CFE4FF67
:10003000F7CFE4FFF5CFE4FFF3CFE4FFF4CFE4FF25
:10004000FACFE4FF00EE00F0140EE80403E3EECF75
:10005000E4FFFBD700EE14F0080EE80403E3EECF54
:10006000E4FFFBD7E652F2A402D0F2944CD99EA052
:1000700002D09E907ED8E55200EE1BF0080EE804F8
:1000800003E3E5CFEDFFFBD700EE13F0140EE80419
:1000900003E3E5CFEDFFFBD7E5CFFAFFE5CFF4FFB4
:1000A000E5CFF3FFE5CFF5FFE5CFF7FFE5CFF6FFAF
:1000B000E5CFEAFFE5CFE9FFE5CFDAFF1100D59EF6
:1000C000CD90CA94B19092809282928492869288C6
:1000D000928A968096929694949094929494959005
:1000E000959295949596949C949E9598959A959CA6
:1000F000959E9390939293949396939881988196DA
:10010000819481928190839E839C839A8398829E1E
:10011000829C839683948392839082948292849229
:1001200084948290C29AC298C296C294C19AC1988D
:10013000C186C184C182C190C09EC08AC098C08659
:10014000C084C092C080C280D08EF28EF28AF184C8
:10015000D59CD59AD596D584D592D5809D809F8003
:10016000CD9ACD88CD96CD92D58ECD8075D8FED73F
:100170001200D9CFE6FFE1CFD9FF040EE126C282FB
:10018000C2B2FED7C4CF07F02AEC02F005C018F0C7
:1001900006C019F007C01AF008C01BF00A6A0B6A03
:1001A000400E0C6E410E0D6E18C005F019C006F021
:1001B0001AC007F01BC008F03BEC02F005C014F0B9
:1001C00006C015F007C016F008C017F00A6A0B6ADF
:1001D000F00E0C6E410E0D6E14C005F015C006F049
:1001E00016C007F017C008F08EEC02F0FBEC02F02E
:1001F000020E06C0DBFF030E07C0DBFF8188790E0D
:10020000DE6EDD68DECF14F0DDCF15F0020EDBCF41
:1002100016F0030EDBCF17F015501718E8AE02D01A
:10022000173404D01650145C175015580AE2010E0A
:10023000E66E1DEC04F0E552DF2A010E01E3DB2A35
:10024000E1D78198040EE15C02E2E16AE552E16ED9
:10025000E552E7CFD9FF12008050020B08E0805032
:10026000080B05E0819681948192819020D0805086
:10027000020B08E18050080B05E0818681948182A1
:10028000819015D08050020B08E08050080B05E1EA
:1002900081968184819281800AD08050020B07E18F
:1002A0008050080B04E18196818481828190805086
:1002B000040B08E08050100B05E0839E839C839A1A
:1002C000839820D08050040B08E18050100B05E08B
:1002D000838E839C838A839815D08050040B08E01A
:1002E0008050100B05E1839E838C839A83880AD00B
:1002F0008050040B07E18050100B04E1839E838C37
:10030000838A8398120084B005D0010E00016A6FC1
:100310006B6B0AD080BA05D0020E00016A6F6B6B5E
:1003200003D000016A6B6B6B6A516B1102E191D0D3
:1003300090D0010E6A1901E16B5144E16C516D11CD
:1003400009E1828E829C8386839483928390829437
:10035000829229D0010E6C1901E16D5109E1829E52
:10036000829C8396839483828390828482921BD022
:10037000020E6C1901E16D5109E1829E828C839617
:10038000838483928390829482920DD0030E6C19A1
:1003900001E16D5108E1829E829C83968394839251
:1003A0008380829482826C2B000E6D23040E6DAFCD
:1003B00002D0D89003D06C5D000E6D5902E36C6BD7
:1003C0006D6B47D0020E6A1901E16B5142E1010EDB
:1003D0006C1901E16D5109E1828E829C83868394C0
:1003E000839283908294829227D0020E6C1901E14D
:1003F0006D5109E1829E829C8396839483828390CF
:100400008284829219D0030E6C1901E16D5109E1C9
:10041000829E828C8396838483928390829482923C
:100420000BD06C516D1108E1829E829C839683945F
:1004300083928380829482826C07000E6D5B6D359F
:1004400004E36C51FF08FF0E6D5503E3030E6C6F60
:040450006D6B1200BE
:0C0454000F9E05D00F9E07AE02D0076C73
:100460000F8E07C001F0006A136A126A860E026ED0
:10047000036A46EF03F00F6A82EC03F09AEC03F094
:100480000FB62AEF03F00FA205D00FBA2AEF03F040
:1004900031EF03F00FBA3DEF03F00FA005D00FB816
:1004A0002AEF03F03DEF03F00FB831EF03F0036ADA
:1004B0007F0E0824026EE86A03220D50025EE86A8D
:1004C000035A1A0E106E086A126A136A006A016AE9
:1004D0000A50055E0B50065A0C50075A000E085A77
:1004E00009E70A5005260B5006220C500722000E81
:1004F000082201D0128AD89005360636073608360B
:10050000D8901236133600360136102EE1D7075038
:1005100006100510D8A4128A46EF03F00F6A82EC89
:1005200003F09AEC03F00FB62AEF03F00FA205D008
:100530000FB82AEF03F031EF03F00FAA05D00FB088
:100540002AEF03F031EF03F00FB002D00FA802D072
:100550003DEF03F0036A0D500824026EE86A03229F
:100560007E0E025EE86A035A126A136A006A016A22
:100570000C500702F4CF01F0F3CF00F00B5007024C
:10058000F3501326F4500022000E01220C500602F4
:10059000F3501326F4500022000E01220A500702E5
:1005A000F3501226F4501322000E002201220B50A9
:1005B0000602F3501226F4501322000E00220122EC
:1005C0000C500502F3501226F4501322000E0022A4
:1005D00001220A500602F4501226000E13220022B5
:1005E00001220B500502F4501226000E13220022A5
:1005F000012246EF03F00F6A82EC03F00FB605EF1D
:1006000003F00FA20ED00FB405D07F0E076EFF0EC1
:10061000066E1FD0800E076E066A1BD0076A066A38
:1006200018D00FB0FBD78F0E0860EDD77E0E086490
:10063000F5D78E0E085C05E0D89007320632082AFE
:10064000F8D70FA406D0066C071EE86A072207AE8B
:10065000E5D712007F0E086EFF0E076E066E056E60
:1006600012007F0E0FBEFF0E086E02D07F0E086EC6
:10067000800E076E066A056AF3D70FAE04D0800EAF
:10068000086E076AF7D7086A076AF4D701500010A6
:1006900013101210F8E003BEF0D701BE0CD00250C8
:1006A0000310EBE0D89012361336003601360206FE
:1006B000D8A00306F2D70350D4E10228D2E012AE4C
:1006C00011D07F0E121402E113A00CD0132AE86A95
:1006D0000022012207E3D880013200321332022ABD
:1006E0000228BFE00250C9E013C005F000C006F0C8
:1006F0000134076E0230086E0732089E0FBE088E66
:1007000030EF03F00736083602E30F840F7E06E170
:100710000F80086A076A066A056A1200082803E063
:10072000D88007321200D890073202E10F821200FF
:100730000F8612000C360D3602E30F8C0F7E06E199
:100740000F880D6A0C6A0B6A0A6A12000D2803E012
:10075000D8800C321200D8900C32EAE10F8A1200D5
:100760000E0EF66E000EF76E000EF86E0001090018
:10077000F550656F0900F550666F03E1656701D0BC
:100780003DD00900F550606F0900F550616F090018
:10079000F550626F09000900F550E96E0900F55047
:1007A000EA6E090009000900F550636F0900F55071
:1007B000646F09000900F6CF67F0F7CF68F0F8CF53
:1007C00069F060C0F6FF61C0F7FF62C0F8FF00018A
:1007D000635302E1645307E00900F550EE6E6307CE
:1007E000F8E26407F9D767C0F6FF68C0F7FF69C091
:0E07F000F8FF00016507000E665BBFD7120020
:0207FE00000EEB
:10080000F36E00EE00F0080E01D81200EA6002D08C
:0E081000EE6AFCD7F350E9601200EE6AFCD7E6
:02081E0013EED7
:1008200000F023EE00F0F86A0F9CB0EC03F003EC4C
:0A08300000F05FEC00F0FBD71200AF
:06083A00FF0EE350E84E42
:100840001200000000D000D000D0E82EFAD712002D
:0408500000000000A4
:020000040030CA
:0100000024DB
:010001000EF0
:0100020039C4
:010003001EDE
:0100050001F9
:010006008178
:010008000FE8
:01000900C036
:01000A000FE6
:01000B00E014
:01000C000FE4
:01000D0040B2
:00000001FF
